:100000000C9461000C947E000C947E000C947E0095
:100010000C947E000C947E000C947E000C947E0068
:100020000C947E000C947E000C947E000C947E0058
:100030000C947E000C947E000C947E000C947E0048
:100040000C94BD010C947E000C947E000C947E00F8
:100050000C947E000C947E000C947E000C947E0028
:100060000C947E000C947E00000000002400270009
:100070002A0000000000250028002B0000000000DE
:1000800023002600290004040404040404040202DA
:100090000202020203030303030301020408102007
:1000A0004080010204081020010204081020000012
:1000B0000007000201000003040600000000000029
:1000C000000011241FBECFEFD8E0DEBFCDBF11E08E
:1000D000A0E0B1E0E0EBF5E002C005900D92A231A6
:1000E000B107D9F711E0A2E1B1E001C01D92AC3136
:1000F000B107E1F70E94B6010C94D6020C940000FF
:10010000CF92DF92EF92FF920F931F93CF93DF93E3
:100110006C01C0E0D0E07B010027F7FC0095102FB8
:1001200013C08091100161E00E948902C801B701EB
:100130000E9405028091100160E00E948902C801BE
:10014000B7010E9405022196CC15DD0554F3DF911D
:10015000CF911F910F91FF90EF90DF90CF90089576
:100160001F93182F60E00E94890266E970E080E02A
:1001700090E00E940502812F61E00E9489021F9198
:10018000089580910401909105010E94B000809132
:100190000401909105010E94B000809104019091AA
:1001A00005010E94B00080910201909103010E941C
:1001B000B00080910601909107010E94B0008091EB
:1001C0000A0190910B010E94B0008091040190916E
:1001D00005010E94B00080910801909109010E94E0
:1001E000B00080910C0190910D010E94B0008091AF
:1001F0000001909101010E94B00080910201909154
:1002000003010E94B00080910601909107010E94B5
:10021000B00080910A0190910B010E94B000809182
:100220000401909105010E94B00080910801909115
:1002300009010E94B00080910C0190910D010E9473
:10024000B00008951F9311E080911201882359F5A1
:1002500080910E0190910F010E94B0000E94C10098
:1002600080910E0190910F010E94B00081E090E01A
:1002700064E670E00E94800080910E0190910F0171
:100280000E94B0000E94C10080910E0190910F0168
:100290000E94B00081E090E064E670E00E9480007F
:1002A00010931201D1CF1F9108958091000161E058
:1002B0000E9469028091020161E00E9469028091BE
:1002C000040161E00E9469028091060161E00E94E0
:1002D00069028091080161E00E94690280910A012F
:1002E00061E00E94690280910C0161E00E94690254
:1002F00080910E0161E00E9469028091100161E02D
:100300000E9469028091000161E00E94890280914F
:10031000020161E00E9489028091040161E00E9473
:1003200089028091060161E00E94890280910801A2
:1003300061E00E94890280910A0161E00E948902C5
:1003400080910C0161E00E94890280910E0161E0C0
:100350000E9489028091100160E00E94890283E07E
:1003600090E064EF71E00E94800008950E942F02E7
:100370000E9455010E942201FDCF1F920F920FB6DD
:100380000F9211242F933F938F939F93AF93BF931B
:100390008091170190911801A0911901B0911A0153
:1003A00030911B010196A11DB11D232F2D5F2D370B
:1003B00020F02D570196A11DB11D20931B018093A4
:1003C000170190931801A0931901B0931A0180911D
:1003D000130190911401A0911501B091160101969D
:1003E000A11DB11D8093130190931401A0931501D9
:1003F000B0931601BF91AF919F918F913F912F9133
:100400000F900FBE0F901F901895EF92FF920F93D1
:100410001F937B018C018FB7F89440911701509185
:1004200018016091190170911A018FBF2FB7F894CC
:100430008091170190911801A0911901B0911A01B2
:100440002FBF841B950BA60BB70BE816F9060A07FE
:100450001B0760F71F910F91FF90EF90089578941C
:1004600084B5826084BD84B5816084BD85B58260B9
:1004700085BD85B5816085BDEEE6F0E08081816057
:100480008083E1E8F0E08081826080838081816008
:100490008083E0E8F0E0808181608083E1EBF0E040
:1004A000808184608083E0EBF0E0808181608083E4
:1004B000EAE7F0E0808184608083808182608083CD
:1004C0008081816080838081806880831092C100F8
:1004D0000895282F30E0C90186569F4FFC01949162
:1004E0002A573F4FF9018491882391F0E82FF0E0DB
:1004F000EE0FFF1FE859FF4FA591B491662329F431
:100500008C91909589238C9308958C91892B8C9351
:100510000895482F50E0CA0182559F4FFC01249155
:10052000CA0186569F4FFC0194914A575F4FFA01CA
:1005300034913323D1F1222331F1233021F48091FE
:1005400080008F7705C0243031F4809180008F7D4A
:100550008093800018C0213019F484B58F7704C0CF
:10056000223021F484B58F7D84BD0DC0263021F466
:100570008091B0008F7705C0273029F48091B000BA
:100580008F7D8093B000E32FF0E0EE0FFF1FEE5859
:10059000FF4FA591B491662329F48C9190958923FE
:1005A0008C9308958C91892B8C930895F894FFCFA8
:1005B000090006000200070003000800040005000F
:0205C0000D002C
:00000001FF
