:100000000C9462000C948A000C948A000C948A0070
:100010000C948A000C948A000C948A000C948A0038
:100020000C948A000C948A000C948A000C948A0028
:100030000C948A000C948A000C948A000C948A0018
:100040000C9457020C948A000C948A000C948A0039
:100050000C948A000C948A000C948A000C948A00F8
:100060000C948A000C948A000000000024002700F1
:100070002A0000000000250028002B0000000000DE
:1000800023002600290004040404040404040202DA
:100090000202020203030303030301020408102007
:1000A0004080010204081020010204081020000012
:1000B0000007000201000003040600000000000029
:1000C00000008C0011241FBECFEFD8E0DEBFCDBFF3
:1000D00011E0A0E0B1E0EEE4F9E002C005900D927D
:1000E000A832B107D9F711E0A8E2B1E001C01D9232
:1000F000A634B107E1F710E0C4ECD0E004C02297C9
:10010000FE010E94A104C23CD107C9F70E9450021F
:100110000C94A5040C9400008091000190910101C1
:10012000A0910201B09103018093290190932A01CB
:10013000A0932B01B0932C018091040190910501B3
:10014000A0910601B091070180932D0190932E019B
:10015000A0932F01B0933001809108019091090183
:10016000A0910A01B0910B0180933101909332016B
:10017000A0933301B093340180910C0190910D0153
:10018000A0910E01B0910F0180933501909336013B
:10019000A0933701B0933801809110019091110123
:1001A000A0911201B09113018093390190933A010B
:1001B000A0933B01B0933C01089582E061E00E946E
:1001C000230383E061E00E94230384E061E00E9456
:1001D000230385E061E00E94230386E061E00E9442
:1001E000230387E061E00E94230389E061E00E942D
:1001F000230388E061E00E94230308951F93182FD2
:1002000060E00E94230364E670E080E090E00E94DA
:100210009F02812F61E00E94230366E970E080E085
:1002200090E00E949F021F910895CF92DF92EF927B
:10023000FF920F931F93CF93DF936C01C0E0D0E048
:100240007B010027F7FC0095102F11C08DE061E0C5
:100250000E942303C801B7010E949F028DE060E065
:100260000E942303C801B7010E949F022196CC156A
:10027000DD0564F3DF91CF911F910F91FF90EF9017
:10028000DF90CF90089582E061E00E94030383E055
:1002900061E00E94030384E061E00E94030385E0C3
:1002A00061E00E94030386E061E00E94030387E0AF
:1002B00061E00E94030388E061E00E94030389E09B
:1002C00061E00E94030308950E9443010E94DD0043
:1002D0008DE061E00E9403038DE060E00E94230353
:1002E00083E090E064EF71E00E94150108954F9261
:1002F0005F926F927F928F929F92AF92BF92CF92B6
:10030000DF92EF92FF920F931F93DF93CF93CDB7BE
:10031000DEB77B018C016DB67EB620E030E040E0B8
:1003200050E00E94CA0318160CF07AC0C801B70149
:1003300020E030E048EC52E40E94CE030E947003BB
:100340006B017C01AA24BB240DC00894A11CB11C24
:100350002AE030E040E050E00E947D04C901DA016B
:10036000BC01CD01611571058105910571F7A114DD
:10037000B10409F455C05DB64EB685010150104078
:10038000C501880F991F2DB73EB7281B390B0FB633
:10039000F8943EBF0FBE2DBF8DB69EB60894811C4B
:1003A000911C000F111F080D191D19C0C701B601BE
:1003B0002AE030E040E050E00E947D04D8016D93D7
:1003C0007C93C701B6012AE030E040E050E00E9493
:1003D0007D04C901DA016C017D0102501040C11495
:1003E000D104E104F10411F7740100E010E0D70139
:1003F000ED91FD917D01EE0FFF1FEC5EFE4F8081C0
:1004000091810E94FE000F5F1F4F0A151B057CF3B0
:10041000852D942D9C010FB6F8943EBF0FBE2DBFC5
:100420000FB6F8947EBE0FBE6DBECF91DF911F91C7
:100430000F91FF90EF90DF90CF90BF90AF909F9083
:100440008F907F906F905F904F9008951F93CF9300
:10045000DF9311E01AC085E090E00E94FE006991F0
:100460007991899199910E94770181E090E064E609
:1004700070E00E94150181E0CD33D80761F785E077
:1004800090E00E94FE0010932801809128018823AB
:1004900019F4C9E2D1E0DFCFDF91CF911F91089528
:1004A0000E94C9020E9464010E942602FDCF1F9291
:1004B0000F920FB60F9211242F933F938F939F9318
:1004C000AF93BF938091410190914201A09143016C
:1004D000B0914401309145010196A11DB11D232F1A
:1004E0002D5F2D3720F02D570196A11DB11D2093B2
:1004F00045018093410190934201A0934301B09341
:10050000440180913D0190913E01A0913F01B09145
:1005100040010196A11DB11D80933D0190933E01C4
:10052000A0933F01B0934001BF91AF919F918F91F4
:100530003F912F910F900FBE0F901F901895EF9243
:10054000FF920F931F937B018C018FB7F89440911A
:1005500041015091420160914301709144018FBF6C
:100560002FB7F8948091410190914201A0914301ED
:10057000B09144012FBF841B950BA60BB70BE81657
:10058000F9060A071B0760F71F910F91FF90EF9084
:100590000895789484B5826084BD84B5816084BDFB
:1005A00085B5826085BD85B5816085BDEEE6F0E0EC
:1005B000808181608083E1E8F0E0808182608083D7
:1005C000808181608083E0E8F0E0808181608083C9
:1005D000E1EBF0E0808184608083E0EBF0E08081FB
:1005E00081608083EAE7F0E080818460808380819D
:1005F0008260808380818160808380818068808345
:100600001092C1000895282F30E0C90186569F4FEF
:10061000FC0194912A573F4FF9018491882391F06E
:10062000E82FF0E0EE0FFF1FE859FF4FA591B491BE
:10063000662329F48C91909589238C9308958C914D
:10064000892B8C930895482F50E0CA0182559F4F03
:10065000FC012491CA0186569F4FFC0194914A5790
:100660005F4FFA0134913323D1F1222331F123304A
:1006700021F4809180008F7705C0243031F480917F
:1006800080008F7D8093800018C0213019F484B5DC
:100690008F7704C0223021F484B58F7D84BD0DC0D6
:1006A000263021F48091B0008F7705C0273029F4DF
:1006B0008091B0008F7D8093B000E32FF0E0EE0FCB
:1006C000FF1FEE58FF4FA591B491662329F48C913A
:1006D000909589238C9308958C91892B8C93089500
:1006E00004D06894B11150C0089533D088F09F575A
:1006F00090F0B92F9927B751A0F0D1F0660F771F6E
:10070000881F991F1AF0BA95C9F712C0B13081F04D
:100710003AD0B1E0089537C0672F782F8827B85FA7
:1007200039F0B93FCCF3869577956795B395D9F7AE
:100730003EF490958095709561957F4F8F4F9F4FB8
:10074000089557FD9058440F551F59F05F3F71F0C1
:100750004795880F97FB991F61F09F3F79F0879528
:100760000895121613061406551FF2CF4695F1DFB1
:1007700008C0161617061806991FF1CF8695710541
:10078000610508940895E894BB2766277727CB0175
:1007900097F9089566D008F48FEF08950BD09CC0A8
:1007A0008DD028F092D018F0952309F07EC083C038
:1007B0001124EACFC6DFA0F3959FD1F3950F50E047
:1007C000551F629FF001729FBB27F00DB11D639F03
:1007D000AA27F00DB11DAA1F649F6627B00DA11DA9
:1007E000661F829F2227B00DA11D621F739FB00D4F
:1007F000A11D621F839FA00D611D221F749F3327BF
:10080000A00D611D231F849F600D211D822F762F57
:100810006A2F11249F5750408AF0E1F088234AF054
:10082000EE0FFF1FBB1F661F771F881F91505040A0
:10083000A9F79E3F510570F038C0A6CF5F3FECF39B
:10084000983EDCF3869577956795B795F795E7958C
:100850009F5FC1F7FE2B880F911D9695879597F99D
:100860000895990F0008550FAA0BE0E8FEEF161641
:100870001706E807F907C0F012161306E407F50794
:1008800098F0621B730B840B950B39F40A2661F008
:10089000232B242B252B21F408950A2609F4A140AB
:1008A000A6958FEF811D811D089597F99F6780E8B8
:1008B00070E060E008959FEF80EC089500240A94B2
:1008C0001616170618060906089500240A9412162B
:1008D0001306140605060895092E0394000C11F45E
:1008E000882352F0BB0F40F4BF2B11F460FF04C00B
:1008F0006F5F7F4F8F4F9F4F0895A1E21A2EAA1B63
:10090000BB1BFD010DC0AA1FBB1FEE1FFF1FA217BF
:10091000B307E407F50720F0A21BB30BE40BF50BBC
:10092000661F771F881F991F1A9469F76095709545
:10093000809590959B01AC01BD01CF010895EE0F0C
:0E094000FF1F0590F491E02D0994F894FFCF6D
:10094E006210CF4148611042CFF7CF41B072B44030
:10095E0039B4B24209000A00060002000B0007007B
:08096E0003000C000800040066
:00000001FF
