:100000000C9461000C947E000C947E000C947E0095
:100010000C947E000C947E000C947E000C947E0068
:100020000C947E000C947E000C947E000C947E0058
:100030000C947E000C947E000C947E000C947E0048
:100040000C9425010C947E000C947E000C947E0090
:100050000C947E000C947E000C947E000C947E0028
:100060000C947E000C947E00000000002400270009
:100070002A0000000000250028002B0000000000DE
:1000800023002600290004040404040404040202DA
:100090000202020203030303030301020408102007
:1000A0004080010204081020010204081020000012
:1000B0000007000201000003040600000000000029
:1000C000000011241FBECFEFD8E0DEBFCDBF11E08E
:1000D000A0E0B1E0E0E8F4E002C005900D92A030AD
:1000E000B107D9F711E0A0E0B1E001C01D92AA303C
:1000F000B107E1F70E941E010C943E020C9400002F
:1001000082E061E00E94F10183E061E00E94F10180
:1001100084E061E00E94F10185E061E00E94F1016C
:1001200086E061E00E94F10187E061E00E94F10158
:1001300089E061E00E94F10188E061E00E94F10144
:1001400008951F93182F60E00E94F10166E970E0A6
:1001500080E090E00E946D01812F61E00E94F1013A
:100160001F91089580910001882329F485E090E093
:100170000E94A100FFCF0895CF92DF92EF92FF92ED
:100180000F931F93CF93DF936C01C0E0D0E07B010E
:100190000027F7FC0095102F11C08DE061E00E9450
:1001A000F101C801B7010E946D018DE060E00E947D
:1001B000F101C801B7010E946D012196CC15DD0542
:1001C00064F3DF91CF911F910F91FF90EF90DF903B
:1001D000CF90089582E061E00E94D10183E061E068
:1001E0000E94D10184E061E00E94D10185E061E0DC
:1001F0000E94D10186E061E00E94D10187E061E0C8
:100200000E94D10188E061E00E94D10189E061E0B3
:100210000E94D10108950E94EA000E9480008DE0B2
:1002200061E00E94D1018DE060E00E94F10183E075
:1002300090E064EF71E00E94BC0008950E94970175
:100240000E940B010E94B200FDCF1F920F920FB6C9
:100250000F9211242F933F938F939F93AF93BF934C
:100260008091050190910601A0910701B0910801CC
:10027000309109010196A11DB11D232F2D5F2D374E
:1002800020F02D570196A11DB11D209309018093E7
:10029000050190930601A0930701B0930801809196
:1002A000010190910201A0910301B0910401019616
:1002B000A11DB11D8093010190930201A093030140
:1002C000B0930401BF91AF919F918F913F912F9176
:1002D0000F900FBE0F901F901895EF92FF920F9303
:1002E0001F937B018C018FB7F894409105015091C9
:1002F000060160910701709108018FBF2FB7F89434
:100300008091050190910601A0910701B09108012B
:100310002FBF841B950BA60BB70BE816F9060A072F
:100320001B0760F71F910F91FF90EF90089578944D
:1003300084B5826084BD84B5816084BD85B58260EA
:1003400085BD85B5816085BDEEE6F0E08081816088
:100350008083E1E8F0E08081826080838081816039
:100360008083E0E8F0E0808181608083E1EBF0E071
:10037000808184608083E0EBF0E080818160808315
:10038000EAE7F0E0808184608083808182608083FE
:100390008081816080838081806880831092C10029
:1003A0000895282F30E0C90186569F4FFC01949193
:1003B0002A573F4FF9018491882391F0E82FF0E00C
:1003C000EE0FFF1FE859FF4FA591B491662329F462
:1003D0008C91909589238C9308958C91892B8C9383
:1003E0000895482F50E0CA0182559F4FFC01249187
:1003F000CA0186569F4FFC0194914A575F4FFA01FC
:1004000034913323D1F1222331F1233021F480912F
:1004100080008F7705C0243031F4809180008F7D7B
:100420008093800018C0213019F484B58F7704C000
:10043000223021F484B58F7D84BD0DC0263021F497
:100440008091B0008F7705C0273029F48091B000EB
:100450008F7D8093B000E32FF0E0EE0FFF1FEE588A
:10046000FF4FA591B491662329F48C91909589232F
:100470008C9308958C91892B8C930895F894FFCFD9
:00000001FF
