:100000000C9461000C947E000C947E000C947E0095
:100010000C947E000C947E000C947E000C947E0068
:100020000C947E000C947E000C947E000C947E0058
:100030000C947E000C947E000C947E000C947E0048
:100040000C94FF000C947E000C947E000C947E00B7
:100050000C947E000C947E000C947E000C947E0028
:100060000C947E000C947E00000000002400270009
:100070002A0000000000250028002B0000000000DE
:1000800023002600290004040404040404040202DA
:100090000202020203030303030301020408102007
:1000A0004080010204081020010204081020000012
:1000B0000007000201000003040600000000000029
:1000C000000011241FBECFEFD8E0DEBFCDBF11E08E
:1000D000A0E0B1E0E4E3F4E002C005900D92AC30A2
:1000E000B107D9F711E0ACE0B1E001C01D92A63133
:1000F000B107E1F70E94F8000C9418020C9400007C
:10010000CF93DF93C0E0D0E080910A0161E00E94CC
:10011000CB0164EF71E080E090E00E9447018091A4
:100120000A0160E00E94CB0164EF71E080E090E0A2
:100130000E9447012196C530D10531F7DF91CF915B
:1001400008958091000160E00E94CB0160EA7FE0A9
:1001500080E090E00E9447018091000161E00E94F0
:10016000CB01089580910C01882329F40E94A100FD
:1001700081E080930C0108958091000161E00E946C
:10018000AB018091020161E00E94AB01809104010A
:1001900061E00E94AB018091060161E00E94AB0129
:1001A00080910A0161E00E94AB018091000161E051
:1001B0000E94CB018091020161E00E94CB018091FD
:1001C000040161E00E94CB018091060161E00E9480
:1001D000CB010E9480000E94A100609108017091F3
:1001E0000901882777FD8095982F0E94470108957F
:1001F0000E9471010E94BC000E94B200FDCF1F92BC
:100200000F920FB60F9211242F933F938F939F93CA
:10021000AF93BF938091110190911201A0911301AE
:10022000B0911401309115010196A11DB11D232F2C
:100230002D5F2D3720F02D570196A11DB11D209364
:1002400015018093110190931201A0931301B093B3
:10025000140180910D0190910E01A0910F01B091B8
:1002600010010196A11DB11D80930D0190930E0107
:10027000A0930F01B0931001BF91AF919F918F9107
:100280003F912F910F900FBE0F901F901895EF92F6
:10029000FF920F931F937B018C018FB7F8944091CD
:1002A00011015091120160911301709114018FBFDF
:1002B0002FB7F8948091110190911201A091130130
:1002C000B09114012FBF841B950BA60BB70BE8163A
:1002D000F9060A071B0760F71F910F91FF90EF9037
:1002E0000895789484B5826084BD84B5816084BDAE
:1002F00085B5826085BD85B5816085BDEEE6F0E09F
:10030000808181608083E1E8F0E080818260808389
:10031000808181608083E0E8F0E08081816080837B
:10032000E1EBF0E0808184608083E0EBF0E08081AD
:1003300081608083EAE7F0E080818460808380814F
:1003400082608083808181608083808180688083F7
:100350001092C1000895282F30E0C90186569F4FA2
:10036000FC0194912A573F4FF9018491882391F021
:10037000E82FF0E0EE0FFF1FE859FF4FA591B49171
:10038000662329F48C91909589238C9308958C9100
:10039000892B8C930895482F50E0CA0182559F4FB6
:1003A000FC012491CA0186569F4FFC0194914A5743
:1003B0005F4FFA0134913323D1F1222331F12330FD
:1003C00021F4809180008F7705C0243031F4809132
:1003D00080008F7D8093800018C0213019F484B58F
:1003E0008F7704C0223021F484B58F7D84BD0DC089
:1003F000263021F48091B0008F7705C0273029F492
:100400008091B0008F7D8093B000E32FF0E0EE0F7D
:10041000FF1FEE58FF4FA591B491662329F48C91EC
:10042000909589238C9308958C91892B8C930895B2
:04043000F894FFCF6E
:0C0434000200030004000500204E0D0033
:00000001FF
